:103000006F70102D7D7106C69307803E3356F70210
:10301000B376F702A947B3D6F602B7350000938519
:10302000C502EF90905AB2404161828025642E25FE
:0830300030326400730010004F
:103038006FF09FFC000000006F00801A6F00801A7C
:1030480083D70500918FBD42B3875702B3D7D70204
:103058008507A1423E83814363F5F2001683B3835B
:1030680057401303130823006500938313082305AF
:1030780075FE050589057D1761F745A87D7106C6AA
:103088002AC4B715002003A641A394413287158F9F
:1030980083D701942983630107047D17631307000D
:1030A80021A890C19386450045472390F6008906DC
:1030B8007D1765FF15A05FF493864500414783D2CD
:1030C80026002390560089067D1775FB2390F6008D
:1030D80090C119A06F6050357D568147454793864A
:1030E8002500890683D2060063F3C200168663F3BF
:1030F800570096877D1775F732C23EC029A8B715C5
:10310800002012468246918E91E28546224511059D
:103118009105454735B7224529150247EFF01FEEBF
:1031280022451247EFF09FEDD9BF23000500230584
:0831380005FEB24041618280F6
:103140003D432A876373C3029377F700BDEFADE574
:10315000937606FF3D8ABA960CC34CC30CC74CC786
:103160004107E36BD7FE11E28280B306C3408A06B3
:103170009702000096966780A6002307B700A30673
:10318000B7002306B700A305B7002305B700A304C3
:10319000B7002304B700A303B7002303B700A302BB
:1031A000B7002302B700A301B7002301B700A300B3
:1031B000B7002300B700828093F5F50F9396850042
:1031C000D58D93960501D58D61B79396270097020B
:1031D000000096968682E78086FA9680C1171D8F3A
:1031E0003E96E374C3F8A5B77300203001A0B7176B
:1031F00002409843B706FFF841111367170098C3C0
:10320000D84337060200758FD8C39843B706F7FE38
:10321000FD16758F98C39843B706FCFFFD16758F92
:1032200098C3D843B70681FFFD16758FD8C33707FB
:103230009F0098C702C402C69843C166558F98C3C1
:10324000B7160240130700509C42F18F3EC6A247BA
:1032500085073EC4B24781E7A247E397E7FEB71769
:1032600002409C431397E7006354070885473EC616
:1032700032478547631CF706B72702409843B706D5
:10328000C1FFFD161367070198C39843719B98C34C
:1032900098431367270098C3B7170240D843D8C391
:1032A000D843D8C3D84313670740D8C3D843758FD2
:1032B000D8C3D843B7061D00558FD8C39843B70667
:1032C0000001558F98C3984393166700E3DD06FE0F
:1032D000D843B7160240719BD8C3D8431367270061
:1032E000D8C32147DC42B18BE39EE7FE41018280D7
:1032F00002C6BDBF03C7B1A0797126D206D622D4BB
:103300004AD04ECE52CC56CA5AC85EC69147938414
:10331000819A6318F70083C7040093C717002380BE
:10332000F4009387813783D767011389813791EB45
:1033300071171377B70F11E723AE013E8546A38AB5
:10334000D19A03C704006305071A954663EDF6009A
:10335000B9668A079386C606B6979C438287134749
:1033600017002380E400EF60500C03A7019313843F
:103370000193198D2547637EA70093874193984356
:1033800093062003050763EEE61698C3EF60F00985
:1033900008C0B7EA0000396B81491384C13A138A27
:1033A000C18B938A8A2F130B4B089387F9FF93F7EE
:1033B000F70F1547636AF7148A07DA979C438287E9
:1033C0001384C1328357E40313074006B3D7E702DF
:1033D0009389619A0947E54605469385619A314587
:1033E0002390F900EF50B07283D70900130740060D
:1033F000B387E702231FF402BDB71384C13283579A
:10340000040413074006B3D7E7029389619A09477A
:103410009306C00305469385619A35452390F900CC
:10342000EF50F06E83D7090013074006B387E70219
:10343000C207C1832310F4042312F4042DB71384AC
:10344000C1328357240413074006B3D7E702938998
:10345000619A0947E54605469385619A3945239067
:10346000F900EF50D06A83D7090013074006B387ED
:10347000E7022311F404C5BD1384C1328357440409
:1034800013064006B3D7C7029389619A094793068A
:10349000C0039385619A3D452390F9008357040446
:1034A00033D6C702EF50B06683D709001307400632
:1034B000B387E70251B71384C132835764041307FB
:1034C0004006B3D7E7029389619A0947E546054666
:1034D0009385619A41452390F900EF50506383D75B
:1034E000090013074006B387E7022313F404A5BDC0
:1034F0000147954601469385E1382945EF503061F3
:103500009DB523A0070059B58357E400D28591E308
:10351000D685138581D2EF90B00F75A883C70400BC
:10352000B1A8930670023307D9022183130747130A
:103530009306803EB387D702B3D7E7022317F40080
:103540006F20A03C09A801E62393F50229A063742B
:10355000F7002393F5026F2000504D41582043554A
:10356000520085311385E1D3EF903006ADA037F6D8
:1035700000001306864D93864184C9BF9387C132EC
:1035800003D7E7039307703E938BC13263F9E708D3
:103590008357E400B5EF37E60000B7E600001306F6
:1035A00046309386C630B7E70000B7E50000938742
:1035B0004731938585321385E1D3EF9010019387CE
:1035C000C1A903D7EB0383D627006386E60023AAAD
:1035D00001922391E7004E85814649468145EF607F
:1035E0006047850993F9F90F9D47E390F9DC225470
:1035F00003456901B25092540259F249624AD24AD3
:10360000424BB24B85464946814545616F608044D7
:1036100037F600001306864D9386418469B79307F9
:103620003006E3FEE7F88357E40085C337F6000071
:103630001306864D93864184B7E70000B7E5000086
:103640009387473193858533BDB737E60000B7E6EA
:103650000000130646309386C630F9BF83C70400C6
:10366000A1A8638D07001383F2FF9303C003337394
:1036700073020503B3F767026F20C00B93071000B6
:103680006F20400B1306C61F93860631B7E7000074
:1036900037E70000B7E50000938747611307C7735A
:1036A00093858534138541D5C1B537E600001306EF
:1036B000062093864183D9BF9387C13203D707047D
:1036C0009307703E938BC13263FDE7048357E40098
:1036D000B1E337E60000B7E600001306C61F938685
:1036E0000631B7E70000B7E500009387476193858F
:1036F0004535138541D5EF90406D9387C1A903D718
:103700000B0483D64700E388E6EC23AA01922392B8
:10371000E700D1B537E60000130606209386418303
:10372000C9B793073006E3FAE7FC8357E40095E353
:1037300037E60000B7E600001306C61F9386063181
:10374000B7E70000B7E5000093874761938505362A
:103750004DB737E600001306062093864183CDB7A8
:1037600083C70400A1A883D2E1216388020003D3A8
:10377000611E6374F3009307401F2312F4006F204F
:10378000A06F00001306864D93864184B7E70000C2
:1037900037E70000B7E50000938747311307C77389
:1037A0009385C5361385A1D6C1B337E60000B7E6C9
:1037B0000000130646309386C630C9BF9387C132D6
:1037C00003D727049307703E938BC13263FDE70450
:1037D0008357E400B1E337E60000B7E600001306C4
:1037E00046309386C630B7E70000B7E50000938700
:1037F00047319385C5371385A1D6EF90005D938738
:10380000C1A903D72B0483D66700E386E6DC23AA8D
:1038100001922393E700C1B337F600001306864DEB
:1038200093864184C9B793073006E3FAE7FC8357D0
:10383000E40095E337E60000B7E6000013064630E3
:103840009386C630B7E70000B7E50000938747319D
:103850009385C5384DB737F600001306864D93861D
:103860004184CDB783C70400A1A89382611E63146D
:103870005E1003D3E1216300031003D3013B63FC1B
:10388000670E6F00C00E000013060620938641836A
:10389000B7E7000037E70000B7E50000938747610E
:1038A0001307C77393858534138501D875B937E637
:1038B0000000B7E600001306C61F93860631C9BF95
:1038C0009387C13203D747049307703E938BC1326D
:1038D00063FDE7048357E400A1C337E60000130645
:1038E000062093864183B7E70000B7E50000938781
:1038F000476193854535138501D8EF90004D938737
:10390000C1A903D74B0483D68700E386E6CC23AA5C
:1039100001922394E700C1B137E60000B7E600004A
:103920001306C61F938606317DBF93073006E3F862
:10393000E7FC8357E40095E337E60000B7E60000B4
:103940001306C61F93860631B7E70000B7E50000EF
:10395000938747619385053679BF37E600001306E4
:10396000062093864183CDB783C70400A1A8B7176B
:103970000000938707772310FE006F20702483D206
:10398000E121E39002CE8D0779476F10705A864D82
:1039900093864184B7E7000037E70000B7E50000F1
:1039A000938747311307C7739385C539138561D949
:1039B00065BE37E60000B7E6000013064630938682
:1039C000C630C9BF9387C13203D767049307703EDF
:1039D000938BC13263FDE7048357E400A1C337F63C
:1039E00000001306864D93864184B7E70000B7E5D3
:1039F0000000938747319385C53A138561D9EF90CD
:103A0000C03C9387C1A903D76B0483D6A700E38486
:103A1000E6BC23AA01922395E70075BE37E60000B5
:103A2000B7E60000130646309386C6307DBF930785
:103A30003006E3F8E7FC8357E40085C337F600005F
:103A40001306864D93864184B7E70000B7E5000072
:103A5000938747319385C53B4DB737E60000B7E6FE
:103A60000000130646309386C630F9BFB7E5000064
:103A70009385C53C1385C1DA79BC79714AD0138727
:103A8000C1320356C70322D426D24ECE06D652CC1C
:103A900056CA5AC85EC662C466C26AC0854583C734
:103AA000819A83C681939389819A1384C1329384C6
:103AB00081936313B60603D501399945631EB50496
:103AC000B3E5D700B1E989472380F40083C7B1A0EB
:103AD00005476396E7002380F4002380090093875D
:103AE000C11D238B0702238707062383070A238F21
:103AF000070C238B0710238707142254B2509254CB
:103B00000259F249624AD24A424BB24B224C924C81
:103B1000024D45616FF00FFE8945E389B6FA03C790
:103B2000B1A091466316D70093C717002380F90010
:103B30009387813783D78701138A813791EB711778
:103B40001377B70F11E723AE013E8546A38AD19ABA
:103B500003C709006308071C994663EDF600B966C0
:103B60008A079386C609B6979C4382871347170036
:103B70002380E90083478A01238AF194994603C789
:103B80005195138C4195938B519563F6F61A3387B3
:103B9000E740E91763C5E61AEF60200903A7019320
:103BA00093840193198D2547637EA70093874193E2
:103BB000984393062003050763E6E61898C3EF6071
:103BC000C00688C0B96C0149938C8C0B938A81D252
:103BD000138BC13A9384C1A883C70B001D47137D83
:103BE000F90FCA97636BF7228A07E6979C4382878F
:103BF0008357C40013074006B3D7E7029384619A42
:103C00000947E54605469385619A01452390F400EE
:103C1000EF50E06F83D7040013074006B387E70235
:103C2000C207C1832316F4002396F1322311F40056
:103C30002312F4002313F4002314F4002315F400DA
:103C400015BF835704019384619A0947D1460546FD
:103C50009385619A0D452390F400EF50406B83D714
:103C600004002318F40039B7835744012947B3D718
:103C7000E7029384619A09479306500A13062008C5
:103C80009385619A15452390F400EF50406883D7DF
:103C900004002947B387E702231AF400E1BD8357E4
:103CA000640113078025B3D7E7029384619A09471B
:103CB0009306000301469385619A19452390F40009
:103CC000EF50E06483D7040013078025B387E70231
:103CD000231BF40045B5835784019384619A0947F7
:103CE0009306300675469385619A1D452390F4002E
:103CF000EF50E06183D70400231CF400A5BD1389B5
:103D0000619A2310C9000947854601469385619A47
:103D10002145EF50C05F8357090023800400231E14
:103D2000F40289BD0147994601469385013905454D
:103D3000EF50E05D81B5E30107E6E3FFE7E42380B0
:103D4000FB0099BD23A007009DBD59453305A9027D
:103D50008357EB00569581EBB7E500009385852FDF
:103D6000EF90000B5DA89385C18BDDBF59453305EE
:103D7000A90283C609008357EB0037E70000569578
:103D8000A5C603A64193F94663F0C60603568A0109
:103D90008546631BD60485EF37E600001306C6266A
:103DA0008357C4009306703E63E6F602930630061E
:103DB00063E7F602B7E600009386063EB7E500002B
:103DC000130747319385C531EF902000B9A01386C2
:103DD0004184F9B7B7E600009386C673C5B7B7E666
:103DE000000093860620D9BFA5EF37E60000130632
:103DF000C6268356C400B7E50000130747319385F4
:103E0000C532EF80907C8357C40003D7240063063B
:103E1000F70023AA01922391F40081464946814587
:103E20006A85EF50304305099D47E317F9DA0345EA
:103E30000C0083C70B002254B25092540259F2492D
:103E4000624AD24A424BB24B224C924C024D1D8DDB
:103E50008546494681451375F50F45616F50903F82
:103E60001386418479B759453305A90283C60900F1
:103E70008357EB0037E7000056959DCE03A641938C
:103E8000F94663FBC60203568A0189466316D602C9
:103E900085E337E6000013064627B7E60000130760
:103EA000472C9386063EB7E500009385852C29BFF5
:103EB000396613064643D5B795EB37E6000013067F
:103EC000462783560401B7E500001307472C938566
:103ED000052DEF80906F8357040103D74400E30E54
:103EE000F7F223AA01922392F40005BF3966130664
:103EF0004643C1BF59453305A90203C7090083558D
:103F000044018357EB0056953DC383A641937947FF
:103F1000637FD70483568A010D47639AE60413072B
:103F20004051B7E600006372B70281EF37E6000048
:103F30001306062837E700001307872D9386C673FC
:103F40009DB739661306C64DF5B791EF37E6000009
:103F5000130606289386C673B7E500009385C52D22
:103F6000EF80B0665DBD39661306C64DE5B7130731
:103F700040516379B704B9E337E600001306062819
:103F80009306803E33F8D5022947B7E700009387B0
:103F9000872DB3D6D502B7E500009385452E33575C
:103FA000E802EF8090628357440103D76400E30680
:103FB000F7E623AA01922393F40085B53966130628
:103FC000C64D7DBF010037E60000B7E600001306CE
:103FD00006289386863EB7E500009385C52DEF80C1
:103FE000D05ED1B739661306C64D93860188E5B712
:103FF00059453305A90203C7090083566401835755
:10400000EB00569525C703A6419379476370C70611
:1040100003568A011147631BE60485CE9DE337E60C
:1040200000001306062985679387F77663EED700AD
:10403000B7F600009386869637E700001307472FF0
:104040009DB51386818DC5B7B7E60000938606201F
:10405000E5B791EB37E6000013060629B7E6000046
:1040600093860620D5BD1386818DCDBFB1C295EF55
:1040700037E60000130606299307C003B3D6F602FD
:1040800037E70000B7E500001307472F9385052D9C
:10409000EF80B0538357640103D78400E30FF7D652
:1040A00023AA01922394F4008DBB1386818DE9B776
:1040B00081CF1386818D93860188B7E500009385B3
:1040C000C52DEF809050F9B737E60000B7E6000045
:1040D000130606299386863ECDB759453305A902B6
:1040E00003C709008357EB00569539C383A6419354
:1040F0007947637FD70283568A011547639AE602A0
:1041000099EF37E600001306862903578401F54727
:1041100063FBE700B7E600009386C62A35BD396623
:104120001306464CDDB7B7F60000938686962DB58C
:104130008356840175476364D7048DCB39661306B3
:10414000464C93860188B7E500009385C52DEF8026
:10415000D047231C04008357840103D7A400E30E37
:10416000F7CA23AA01922395F40045B937E6000067
:10417000B7E60000130686299386863EE9B785E3F5
:1041800037E600001306862937E70000B7E5000090
:10419000130747319385052DEF8030436DBF396696
:1041A0001306464CD5B759453305A90203C7090084
:1041B0008357EB00B7E5000056950DCB83A64193DE
:1041C00079476375D70283568A0119476390E602DF
:1041D00091EB37E600001306462BB7E60000938606
:1041E0000620ADBB39661306064AC5BF85EF37E624
:1041F00000001306462B0357C4030DCB95EFB7F60B
:104200000000938606089385C52DEF80103C8357E8
:10421000C40303D7C400E302F7C023AA0192239684
:10422000F400E5BE39661306064AF1B789EBB7E636
:1042300000009386863EC1BF93864188E9B7938686
:104240000188D1B759453305A902B7E50000938528
:10425000C53C569531B683C7B1A0797122D406D634
:1042600026D24AD04ECE52CC56CA5AC85EC6114744
:104270001384819A6398E7000347040013471700EB
:104280002300E4001387813703574701938981375F
:1042900011EBF11793F7B70F91E723AE013E854677
:1042A000A38AD19A83470400638D070E8546630075
:1042B000D7082DCB89476309F70AEF50101703A7DA
:1042C000019393840193198D2547637EA7009387FB
:1042D0004193984393062003050763EDE60C98C3CA
:1042E000EF50B01488C0814A138BC13A1389C13290
:1042F000138AC1A8938BC18493F4FA0F894763830F
:10430000F41C63EC970A8547638AF40C8357EB002F
:10431000F9E3B7E500009385852F138581D2EF80FF
:10432000302F9DA293C717002300F40079B7938420
:10433000C13283D7A40113074006B3D7E70213891C
:10434000619A0947BD4605469385619A3945231010
:10435000F900EF40D07B8357090013074006B3876D
:10436000E702239DF40091BF9384C13283D7A40256
:1043700013074006B3D7E7021389619A0547C14680
:1043800021469385619A3D452310F900EF4030782E
:104390008357090013074006B387E7022395F40209
:1043A00029BF0147894601469385C1385145EF40F1
:1043B000107621B723A0070025B79947E3E897F4C3
:1043C000D947B387FA02B7E50000138581D29385F8
:1043D000C53C3E95A9B79385C18B81B78346040040
:1043E0008357EB0037E70000ADC603A64193F946BB
:1043F00063F1C60683D64901639D960495EF37E6BF
:1044000000001306C6268357A9019306703E63E891
:10441000F6029306300663E9F602B7E600009386DB
:10442000063EB7E50000130747319385C531138574
:10443000E1D3EF80901989A813864184E9B7B7E6E4
:1044400000009386C673F1BFB7E60000938606208E
:10445000C9BFB5E737E600001306C6268356A90193
:10446000B7E50000130747319385C5321385E1D3C3
:10447000EF80B0158357A90103572A006306F700A0
:1044800023AA01922311FA008146494681452685D7
:10449000EF50405C850A9D47E390FAE6225403C53D
:1044A0004901B25092540259F249624AD24A424BEF
:1044B000B24B85464946814545616F50A0591386E8
:1044C000418469BF834604008357EB0037E700004F
:1044D0008DCE03A64193F94663F9C60283D64901FE
:1044E000639596025E8689E737E600001306463E2E
:1044F000B7E60000B7E500001307872D9386062076
:104500009385C531138541D52DB75E8689E737E69A
:1045100000001306463E8356A9029307400613087F
:10452000872DB3D7F60229479305803E138541D5E1
:10453000B3F7E70237E700001307C73EB3D6B6026A
:10454000B7E500009385053FEF8030088357A90247
:1045500003574A00E30AF7F223AA01922312FA0052
:1045600025B703C7B1A0797122D406D626D24AD086
:104570004ECE52CC56CA5AC85EC662C49147138406
:10458000819A6318F7008347040093C7170023003C
:10459000F4009387813783D727019384813791EB88
:1045A00071171377B70F11E723AE013E8546A38A33
:1045B000D19A0347040063070714914663EDF600A0
:1045C000B9668A079386860DB6979C438287134700
:1045D00017002300E400EF50406503A701931389FF
:1045E0000193198D2547637FA700938741939843D3
:1045F00093062003050763E0E61298C3EF50E062DC
:104600002320A900B7EA0000396B81491389C13A18
:10461000138AC18B938A8A2F130BCB0E93FBF90F4E
:104620009387FBFF93F7F70F15476369F70E8A0728
:10463000DA979C4382871389C1328357E9001307B5
:104640004006B3D7E7029389619A0947E5460546D4
:104650009385619A79452390F900EF40504B83D7B9
:10466000090013074006B387E7022317F900A5B72F
:104670001389C1328357C90113074006B3D7E70234
:104680009389619A0947BD4605469385619A7D45A0
:104690002390F900EF40B04783D709001307400685
:1046A000B387E702231EF9003DB71389C132835750
:1046B000C9029389619A09479306C0030546938509
:1046C000619A130500022390F900EF40504483D70C
:1046D00009002316F90201B71389C1328357E90291
:1046E0009389619A0947F94605469385619A1305AE
:1046F00010022390F900EF40904183D7090023175F
:10470000F902D1BD0147914601469385A138514533
:10471000EF40F03FC9B523A00700CDB58357E900AE
:10472000D28591E3D685138581D2EF80606E65A82E
:10473000834604008357E900138CC13237E7000039
:10474000B5C603A64193F94663F2C60603D6240113
:104750008546631DD60495EF37E60000130686777D
:104760008357EC009306703E63E8F602930630062A
:1047700063E9F602B7E600009386063EB7E500005F
:10478000130747319385C5311385E1D3EF80E0638B
:1047900099A81386C183E9B7B7E600009386C6736C
:1047A000F1BFB7E6000093860620C9BFADEB37E640
:1047B0000000130686778356EC00B7E50000130768
:1047C00047319385C5321385E1D3EF80006093872D
:1047D000C1A80357EC0083D627006386E60023AA0E
:1047E00001922391E7008146494681455E85EF505D
:1047F000602685099D47E393F9E2225403C524010D
:10480000B25092540259F249624AD24A424BB24BD8
:10481000224C85464946814545616F50A023138649
:10482000C18351BF834604008357E900138CC13212
:1048300037E70000ADC603A64193F94663F1C6060B
:1048400003D624018946631CD60485EF37E60000B1
:10485000130606788357CC019306703E63E7F60291
:104860009306300663E8F602B7E600009386063E3C
:10487000B7E50000130747319385C531138541D54E
:1048800031B739661306C644F1B7B7E60000938620
:10489000C673F9BFB7E6000093860620D1BF95EF37
:1048A00037E60000130606788356CC01B7E5000012
:1048B000130747319385C532138541D5EF80E0500A
:1048C0009387C1A80357CC0183D64700E38DE6F058
:1048D00023AA01922392E70039B739661306C6442A
:1048E000E1B7834604008357E90037E70000A1C21F
:1048F00003A64193F94663FCC60203D624018D4604
:104900006317D60295E337E600001306C678B7F6BC
:104910000000B7E500001307472F9386869693851E
:10492000C5311385A1D69DB51386818ACDB7A1E384
:1049300037E600001306C678138CC1328356CC02CA
:10494000B7E500001307472F9385C5321385A1D61D
:10495000EF80A0479387C1A80357CC0283D6670096
:10496000E383E6E823AA01922393E700ADBD138613
:10497000818AD9B7034704008357E90021C383A67E
:1049800041937947637CD70283D62401114763970B
:10499000E60295E337E6000013068679B7E60000E5
:1049A000B7E500009386063E9385057A138501D806
:1049B000EF80A0410DBD13864185CDB795EF37E659
:1049C000000013068679138CC1328356EC02B7E5DA
:1049D00000009385857A138501D8EF80003F938787
:1049E000C1A80357EC0283D68700E38EE6DE23AA34
:1049F00001922394E700C5BB13864185E9B7D947E7
:104A0000B387F902B7E50000138581D29385C53CD1
:104A10003E9521BB03C7B1A0797126D206D622D418
:104A20004AD04ECE52CC56CA5AC85EC662C49147CE
:104A30009384819A6318F70083C7040093C7170013
:104A40002380F4009387813783D707011389813747
:104A500091EB71171377B70F11E723AE013E85462F
:104A6000A38AD19A03C70400630F071E994663ED1A
:104A7000F600B9668A0793864610B6979C438287EC
:104A8000134717002380E400EF50201A03A7019377
:104A900013840193198D2547637EA7009387419363
:104AA000984393062003050763E9E61C98C3EF507B
:104AB000C01708C037EB0000B96B8149138AC13AAF
:104AC000938AC18B130B8B2F938B0B129387F9FF58
:104AD00093F7F70F95460357EA0063E3F61A8A0740
:104AE000DE9794431384C132B7E7000003C6040085
:104AF00082861384C1328357040313074006B3D759
:104B0000E7029389619A09479306800215469385C7
:104B1000619A130580022390F900EF40407F83D70C
:104B2000090013074006B387E7022318F402A9BF60
:104B30001384C1328357240313074006B3D7E70217
:104B40009389619A09479306800215469385619A75
:104B5000130590022390F900EF40607B83D7090092
:104B600013074006B387E7022319F40231BF138409
:104B7000C1328357440313074006B3D7E702938932
:104B8000619A09479306800215469385619A130539
:104B9000A0022390F900EF40807783D70900130724
:104BA0004006B387E702231AF402F9BD1384C13229
:104BB0008357640313074006B3D7E7029389619ACA
:104BC00009479306800215469385619A1305B00242
:104BD0002390F900EF40A07383D709001307400624
:104BE000B387E702231BF40245B51384C132835710
:104BF000840313074006B3D7E7029389619A0947F4
:104C00009306800215469385619A1305C00223908E
:104C1000F900EF40C06F83D7090013074006B38740
:104C2000E702231CF4028DB51384C1328357A40319
:104C300013074006B3D7E7029389619A09479306A1
:104C4000800215469385619A1305D0022390F900DE
:104C5000EF40E06B83D7090013074006B387E702F4
:104C6000231DF40215B50147994601469385813805
:104C70001305E002EF40A06901BD23A0070005BDB8
:104C8000D68511E3DA85138581D2EF8060184E85D1
:104C9000814649468145EF40F05B850993F9F90F5C
:104CA0009D47E395F9E2225403450901B25092541D
:104CB0000259F249624AD24A424BB24B224C8546D3
:104CC0004946814545616F40F058B7E6000025CA66
:104CD00083A5419379466374B60683550901054659
:104CE000639FC50421E337E600001306062103573E
:104CF00004039305703E63EAE5029305300663EB17
:104D0000E50237E700001307073EB7E50000938789
:104D100047619386C621938545221385E1D3EF80B1
:104D2000C00AB5B713864183D9B737E70000130728
:104D3000C773E1BF37E7000013070720F9B721E386
:104D400037E600001306062103570403B7E5000009
:104D5000938747619386C621938505231385E1D305
:104D6000EF80A0069387C1A80357040383D62700CA
:104D7000E38FE6F023AA01922391E70009BF13868F
:104D80004183D9B7B7E6000035C683A5419379467C
:104D90006372B606835509010946639DC50415EF84
:104DA00037E6000013060621035724039305703EDF
:104DB00063E8E5029305300663E9E50237E70000A2
:104DC0001307073EB7E50000938747619386C62324
:104DD00093854522138541D599B713864183E9B759
:104DE00037E700001307C773F1BF37E70000130769
:104DF0000720C9BF21E337E6000013060621035749
:104E00002403B7E50000938747619386C623938503
:104E10000523138541D5EF70507B9387C1A80357B5
:104E2000240383D64700E384E6E623AA0192239273
:104E3000E700B1BD13864183D9B7B7E6000035C698
:104E400083A5419379466372B606835509010D46E1
:104E5000639DC50415EF37E60000130606210357CE
:104E600044039305703E63E8E5029305300663E969
:104E7000E50237E700001307073EB7E50000938718
:104E8000476193864624938545221385A1D641BD6B
:104E900013864183E9B737E700001307C773F1BFF3
:104EA00037E7000013070720C9BF21E337E60000FA
:104EB0001306062103574403B7E5000093874761B3
:104EC00093864624938505231385A1D6EF70F06F52
:104ED0009387C1A80357440383D66700E389E6DAC2
:104EE00023AA01922393E7005DB313864183D9B7C8
:104EF000B7E6000035C683A5419379466372B606CE
:104F0000835509011146639DC50415EF37E600007E
:104F100013060621035764039305703E63E8E50218
:104F20009305300663E9E50237E700001307073E03
:104F3000B7E50000938747619386C6249385452291
:104F4000138501D8E9BB13864183E9B737E7000031
:104F50001307C773F1BF37E7000013070720C9BF66
:104F600021E337E600001306062103576403B7E583
:104F70000000938747619386C62493850523138594
:104F800001D8EF7090649387C1A80357640383D658
:104F90008700E38EE6CE23AA01922394E700C5B9E9
:104FA00013864183D9B7B7E6000035C683A5419380
:104FB00079466372B606835509011546639DC5049B
:104FC00015EF37E600001306062103578403930507
:104FD000703E63E8E5029305300663E9E50237E7D2
:104FE00000001307073EB7E50000938747619386EB
:104FF000462593854522138561D915B313864183D0
:10500000E9B737E700001307C773F1BF37E70000C0
:1050100013070720C9BF21E337E600001306062166
:1050200003578403B7E500009387476193864625BD
:1050300093850523138561D9EF7030599387C1A8F3
:105040000357840383D6A700E383E6C423AA01920F
:105050002395E7002DB913864183D9B7B7E6000041
:1050600035C683A5419379466372B6068355090117
:105070001946639DC50415EF37E6000013060621A7
:105080000357A4039305703E63E8E50293053006D9
:1050900063E9E50237E700001307073EB7E50000C4
:1050A000938747619386C625938545221385C1DA88
:1050B000BDB113864183E9B737E700001307C77313
:1050C000F1BF37E7000013070720C9BF21E337E628
:1050D0000000130606210357A403B7E500009387D9
:1050E00047619386C625938505231385C1DAEF7042
:1050F000D04D9387C1A80357A40383D6C700E38884
:10510000E6B823AA01922396E70051B6138641839D
:10511000D9B75971B7E70000DEC683AB0765B7E7BB
:105120000000E2C403AC4765A2D4CAD03D64D6CA2D
:10513000A6D2CECED2CCEAC06EDE9389C11D930436
:10514000849F86D6DAC8E6C202CC02CE02D002D252
:1051500002D402D61304849F938AC11D014A138985
:1051600081925E8DE28D03C78A028547937CFA0F98
:105170006312F71AB307490183C70700D9E701464D
:1051800089456685EF2070430565130585BBEF6093
:105190006030284463470500EF20204D5145EF6003
:1051A000602F03454400131B1A00EF20C02D2AC6B0
:1051B0000345C404EF20202DB2463C083387670125
:1051C0002AC436853AC2EF705012DE85EF708063D4
:1051D000E285EF702063EF70F00B5C1012473E9B8E
:1051E000A2472310A7003E85EF703010EA85EF70CC
:1051F0006061EE85EF700061EF70D0092310AB00A5
:10520000054685456685EF20B00F050A9947938AC4
:105210008A033104E319FAF41305007DEF60802757
:10522000B7E7000003AA0765B7E7000083AA476550
:10523000814CD28B568C03C78902854713F4FC0F2F
:105240006314F70A330B990183470B00D1EFA8448D
:1052500063470500EF2060415145EF60A02303C57F
:105260004400139D1C00EF2000222AC203C5C40481
:10527000EF20602101468945AA8D2285EF20F03379
:1052800092473E85EF707006D285EF70A057D685A5
:10529000EF704057EF7010003C08EA9713140501B7
:1052A00003D507004180098C1305803E3304A40216
:1052B0006E85EF709003DE85EF70C054E285EF706D
:1052C0006054EF70207D5C103E9D83570D004205B9
:1052D00041811D8D3344A402294585472300FB00ED
:1052E0003344A40223908902850C9947938989034A
:1052F000B104E392FCF4B650265496540659F6498C
:10530000664AD64A464BB64B264C964C064DF25D45
:1053100065618280B307490123800700FDB53971BB
:1053200006DE22DC26DA4AD84ED652D456D25AD0DD
:105330005ECE62CC66CA6AC86EC6EFF09FDD83D7C8
:10534000A13BC5EFB7E500009385451C138581D2CD
:10535000EF70102C9384C11D138981920544D94AA2
:10536000938981D2054BB7EB000037EC0000B7EC16
:10537000000037ED0000B7ED00003305540383C78C
:105380008402137AF40F4E95639D670783D66401F8
:1053900029471306400633D7E60283D704021308D1
:1053A0004D1D93858D1D3377C7021306803EB3D6FE
:1053B000C6022286EF70702181464946814552859A
:1053C000EF40406905049D47938484030509E31673
:1053D000F4FA6254F250D2544259B259225A925AB3
:1053E000025BF24B624CD24C424DB24D854649466F
:1053F0008145014521616F40E065B9659385C540F0
:10540000B1B713870B1FA28613064C2093858C20FF
:10541000EF70B01B2300090045B7797122D406D67E
:1054200026D24AD04ECE52CC56CA5AC85EC662C4A4
:105430009387C13B83C7C701638B074E3545EF2078
:105440008004AA8431451384C13BEF20C003637EEE
:10545000951E85673385A440138707CD3307E50282
:10546000130530073347F702BD473307A702334719
:10547000F7028147420741833A8993868198904297
:105480001D48329798C29386C1989042138581989F
:105490009385C198B297138641999CC283460600B2
:1054A000850693F6F60F636BD81C2300D600834461
:1054B000C4018547138AA197938941966399F42083
:1054C0009387C13A83D747005957938AC13AB3C7E4
:1054D000E702096713070771614BBA97239EF1969C
:1054E000896793878764239FF1962389019AEF4008
:1054F000C07323A0A196EF40407323AEA194EF4068
:10550000C07223A0A19A23A091988947230EF4008A
:1055100023AC01982382019A194523000A0023A88D
:105520000198A144EF20601423A009001D45EF104D
:1055300090753305650383A70900FD1493F4F40FF8
:105540003E9523A0A900FDF00D81896589472318A8
:10555000A4009385F57009452316F400EF409027C9
:105560005145EF5030769387019723A0070023A27F
:10557000070083D78A0005476365F7142316E40004
:105580001945EF20800E1D45EF20000AE147330545
:10559000F502AD67938787799384819642054181AF
:1055A000239CA196938A819763F2A7321D4523A07D
:1055B000040023A00900EF202007E1473305F5028E
:1055C000A967938707C423A0A90063D5A7008547CF
:1055D0002300FA001D45EF10106BE1473305F5027B
:1055E00003C7C1968D469387C19605071377F70FBA
:1055F000420541812390AA0063EFE62E2380E70055
:1056000083C70700138701978607BA972390A700DF
:105610008356270083570700B697835647000357E2
:105620006700B697BA978983096723A0F900130723
:105630000771636727018356C40009476390E62C0E
:105640002318F40023170400C9A463F6A402056715
:10565000058D930707CDB307F50213053007B3C7D0
:10566000E7023D47B387A702B3C7E702C207C1837A
:105670003E89014719B501498147E5BF230006006E
:105680000356E4001308C05D938661956375C802F4
:105690000D462380C60083C606002320050023A0F4
:1056A00005003357D702B3D7D70258C805471CCCDB
:1056B000238CE19AEDBB13087057E36EC8FC2146BA
:1056C000C9BF0947E39EE7EA2316040055BD894791
:1056D000E398F4EAEF00503C03A7C1959384C19589
:1056E000198D1307803E637EA70093870198984326
:1056F00083D6613B6374D700050798C3EF40E0523F
:1057000088C083470A00639B071A1387C13A83A79F
:1057100001980357A700938AC13A938B019863FFBE
:10572000E71803D78A00138B419A05EB6FE02FA58A
:10573000B3F7E7029DE383470B0085E3EF40E04EBC
:105740000357C40023A2A198239CE194854723001A
:10575000FB00EF40804D23A0A19A03470B00854634
:1057600083D7E1979384E1976317D70A09671307F3
:1057700037636369F708D1072390F400EF40E04AEC
:10578000138C419883270C001D8D8567938787BBF9
:1057900063FAA70403D7AA0083A70B0063F4E70406
:1057A00083D78195595723000B0093C71700231601
:1057B000F40083D76125B3C7E702096713070771B0
:1057C000BA97239EF1962389019A89679387876404
:1057D0002390F400EF4060452320AC00EF40E0440C
:1057E00023A0A19A03D7040089679387F77063FE0B
:1057F000E70A2390F40083D504000355C400EF406A
:10580000607DBDBB89679387F7702390F40089475B
:105810002316F400A5B783D6C197138B019663FFB7
:10582000F60009EF03D76125637AE900B1172390E9
:10583000F400EF40803F2320AB006DB7054723897C
:10584000E19AEF40803E83270B001D8D9307C01225
:10585000E3FAA7F883C6819B85476395F602035751
:10586000C400238C019A83D704006317D7025848D9
:1058700083D6612563D5E602158F1D878507BA9704
:105880002390F40003D70400896793878764E3FBC0
:10589000E7F42390F400B9B775F7184CD1BF3387FC
:1058A000E640FD171D87998FE1BF85679387379C79
:1058B000E3E3E7F485679387479C25BF89478965BC
:1058C0002316F4009385F570094515BF03D7213BD6
:1058D0008356E4009C40130787026359D700890769
:1058E0009CC01307800CE364F7CEEDB1E38407CED0
:1058F000FD179CC0C5B12380070019B303570401ED
:10590000E372F7D4998F6FD0DFC183470A0085C354
:10591000896589479385F57009452316F400EF40A2
:10592000606B230E040023A0040023170400B25070
:10593000225492540259F249624AD24A424BB24B23
:10594000224C45618280797122D49387C13A83D7F2
:10595000E70006D626D24AD04ECE52CC56CA5AC8F6
:105960005EC662C41384C13A6380072CB969138B85
:10597000018E13894184938909449387819483D646
:1059800007001386C13B8506C206C1822390D7005B
:105990001385C193032805000357E6000356C6008C
:1059A0009384C13B429718C1054813858194938520
:1059B000C1939387419463160629D04803A8070032
:1059C000429690C31306F007938AA193637BD60295
:1059D0001D832390EA00984303D661251D83938697
:1059E00001942390E6004207418313064606635460
:1059F000E6002390C6002310050023A0050023A085
:105A0000070083C6B1A005473E8A639EE60089650C
:105A100089479385F5700945238E0400BCC0239601
:105A2000F400EF40205B01478546014693854138ED
:105A30001305A005EF30B00D03C7B1A09147138A3D
:105A400081376318F7008327CA0005476393E7008F
:105A5000BCC083D70A000567130767389386F7FF32
:105A6000C206C182B7E500006363D71E9306803E7D
:105A700033F6D70229473357E602B3D6D7024A8610
:105A800093858570138541D5EF7020348357E400EA
:105A90006382071CB7E60000138681879386062081
:105AA00003A701988355A4009307C003998D13851C
:105AB00081D2B7EA0000938B019833D7F50233F80F
:105AC000F502B377F7020567130707E133D7E5025D
:105AD000B7E5000093858571EF70202F9385CA721A
:105AE0001385E1D3EF70C03203D7C40085468357D6
:105AF000E400B7E500006318D71663900718B7F6FF
:105B000000009386869603D601941307803EA9472A
:105B10003378E6023357E602B357F8025A86938584
:105B200045741385E1D3EF70402A03C7A1978547D9
:105B30006317F7028357E400639B0714B7F600006E
:105B400037E70000938686961307C76DB7E5000018
:105B50004A8693854575138541D5EF700027EF4040
:105B6000C00C83A78199138981991D8D9307001912
:105B700063FEA70403C7C1998D469387C1990507A2
:105B80001377F70F63E1E6122380E7008356A40042
:105B900003A70B006364D71283C70700858B639745
:105BA00007108357E40063980710B7E60000938658
:105BB000866EB7E500004E869385C5751385A1D620
:105BC000EF70A020EF4060062320A9009385CA72E1
:105BD000138561D9EFD00FCB8357E4006397071487
:105BE00037E600001306866FB7E500009385C5769B
:105BF0001385C1DAEF70601D8327CA00814689C70B
:105C000005476398E71285462254B25092540259D0
:105C1000F249624AD24A424BB24B224C4946814534
:105C2000194545616F30106337EB000037E900001C
:105C3000B7E90000130BCB6B1309C9269389496C94
:105C40002DBB19E2904C9DBB23A00700A5BB0147CB
:105C5000814635B537E60000B7E600001306066D4D
:105C60009386C67335BDE30A07E889EFB7F60000EF
:105C7000938686968147014755B5B7E6000093861F
:105C8000062051B5B7E6000093860620E5B7B7E6D3
:105C9000000037F9000039679386C6731309894DF0
:105CA0001307074965B523800700CDB5B7E60000A7
:105CB0009386863DFDBD9386C185E5BD03C7419AA8
:105CC0000DC783C70700858B89EB8357E40099EBE9
:105CD000B7E600009386066FE9BDB7E6000093863D
:105CE000C61FC1BD93860189E9B503D7C4008546A7
:105CF0006312D70283C7070013972700B707002056
:105D000093870703BA97B7E5000094434E869385BF
:105D1000057A6DB5E31807EA83C7070013972700D4
:105D2000B707002093870702F1BF396613060640C4
:105D300065BDB250225492540259F249624AD24A85
:105D4000424BB24B224C4561828083C7B1A079712E
:105D50004AD006D622D426D24ECE52CC56CA5AC8E3
:105D60005EC611471389819A6398E70003470900CB
:105D7000134717002300E9001387813718479384DE
:105D800081371384C13B05E3F11793F7B70F81EF18
:105D90008D473CC08547230EF40023A60400A38A48
:105DA000F19AEFF08FE70347C40189476316F700C4
:105DB0008D4723A604003CC0034709006302071671
:105DC0009C44994663EDF600BD668A07938686403B
:105DD000B6979C438287134717002300E900EF30F2
:105DE000D06403A7019313840193198D2547637E23
:105DF000A70093874193984393062003050763EB1D
:105E0000E61298C3EF30706208C0B7EA0000396B41
:105E100081491384C13A138AC18B938A8A2F130B49
:105E2000CB1493FBF90F9387FBFF93F7F70F1547FD
:105E30006365F7108A07DA979C4382871384C13A17
:105E40008357440013074006B3D7E7029389619A4A
:105E500009479306C00315469385619A130590027E
:105E60002390F900EF30A04A83D7090013074006BA
:105E7000B387E7026FD03F8F9DB71384C13A835732
:105E8000640013074006B3D7E7029389619A094774
:105E9000D14605469385619A1305A0022390F90027
:105EA000EF30E04683D7090013074006B387E702C7
:105EB0002313F4002DB71384C13A835784009389C8
:105EC000619A0947894601469385619A1305B00294
:105ED0002390F900EF30A04383D709002314F40086
:105EE000FDBD1384C13A8357A4001307C003B3D781
:105EF000E7029389619A09479306C0120546938584
:105F0000619A1305C0022390F900EF30404083D717
:105F100009001307C003B387E7022315F400C1B5D6
:105F2000014799460146938501381305E002EF3099
:105F3000003E75B523A00700F1B58357E400D28574
:105F400091E3D685138581D2EF60906C5DA0834686
:105F500009008357E40037E70000A9C203A6419374
:105F6000F94663FDC602904485466319D60285E76B
:105F700037E600001306C66BB7E60000B7E5000081
:105F80001307872D9386C668938545691385E1D3EA
:105F9000EF60B063B9A81386018EF9BFD1E737E689
:105FA00000001306C66B835544009306803E93079A
:105FB0004006B3F8D5021308872D37E70000130712
:105FC000C73E1385E1D3B3D6D502B7E5000093856C
:105FD000C569B3D7F802EF60505F9387C1A8035734
:105FE000440083D627006386E60023AA019223910A
:105FF000E7008146494681455E85EF30B025850939
:106000009D47E390F9E2225403C58400B2509254B4
:106010000259F249624AD24A424BB24B854649463E
:10602000814545616F3010231386018EADBF8346D5
:1060300009008357E40037E70000A1C203A641939B
:10604000F94663FCC602904489466318D60295E37C
:1060500037E6000013068665B7E60000B7E50000E6
:106060001307876A938606209385C56A138541D5F1
:1060700005B7396613068641C5B7A1EF37E60000BC
:1060800013068665835564009306803E9307400699
:10609000B3F8D5021308876A37E700001307C73E35
:1060A000138541D5B3D6D502B7E500009385C56900
:1060B000B3D7F802EF6070519387C1A8035764000B
:1060C00083D64700E387E6F223AA01922392E700F2
:1060D0000DB739661306864175B783470900B1CB02
:1060E00003A74193F94763F6E70498448D47631289
:1060F000F7048357E4008DE737E600001306466C8B
:106100008357840095E3B7E600009386C673B7E52E
:1061100000009385456B1385A1D6EF60104BD1BD70
:10612000396613060644E9BFB7E600009386C61F2A
:10613000F9BF83578400B9E78357E4009DCB3966E4
:106140001306064493868181B7E500009385456B6D
:106150001385A1D6EF6070479387C1A803578400C9
:1061600083D66700E387E6E823AA01922393E7003A
:1061700049B537E60000B7E600001306466C938683
:10618000C666D9B705476394E7028357E40099C709
:10619000396613060644938681867DB737E600008C
:1061A000B7E600001306466C9386466771BF094741
:1061B000E394E7FA8357E40099C739661306064467
:1061C0009386018B51B737E60000B7E6000013064F
:1061D000466C9386C6678DBF834609008357E400EB
:1061E00037E70000B1CA03A64193F94663F6C60437
:1061F000904491466312D60485EB37E600001306FF
:1062000046688356A4009307702563E2D702B7E679
:1062100000009386063EB7E500001307472F9385DD
:106220004569138501D8ADB31386818DD9BFB7F603
:10623000000093868696C5B7B1E337E600001306E3
:1062400046688356A4009307C003B7E50000B3D6A1
:10625000F6021307472F93858520138501D8EF6039
:10626000D0369387C1A80357A40083D68700E38262
:10627000E6D823AA01922394E700A5BB1386818D5B
:10628000C9B7D947B387F902B7E50000138581D2B2
:106290009385C53C3E954DB96F00E01D03D3013B8E
:1062A000638C020683D3611E6378730603A541A342
:1062B00003AEC1953305C54103AE0198130EFEFF31
:1062C000930E803E330EDE033305C501B38ED20339
:1062D0003375D5031315A50013DE1E003305C50164
:1062E0003355D503130E00206376AE00130E004025
:1062F0003305AE406F00E019130E4E3C330EAE0076
:1063000003450E00B3836340B383A3021305F00F6C
:10631000B3D3A30233037300239B61249303A00030
:10632000335E7302B723000093830371B383C341C9
:10633000239E71966F30700F9302601E1303400608
:106340009306C00313065000130590079303100033
:106350006F00C0019302E021130310009306400B6D
:10636000130600001305A007930300001384C13A2D
:10637000338E510083570E00638603006394070039
:1063800083574400B3D767029389619A13072000AB
:106390009385619A2390F900130101FF2320610086
:1063A0002322C101EF20B07603230100032E410018
:1063B0001301010183D70900B38767026FD0EFCAC9
:1063C0006FF0FFA100000101020405070A0C0F1283
:1063D00015191D21252A2F34393E43494F555A613D
:1063E000676D73797F868C92989EA5AAB0B6BCC162
:1063F000C6CBD0D5DADEE2E6EAEDF0F3F5F8FAFB4B
:10640000FDFEFEFFFF0000004D415820564F4C544A
:106410004147450056205357494E473A20007300E4
:1064200000202020002573257300732053494E451A
:106430000000000000007320545249414E474C4573
:106440000000732054524150455A000000009382CE
:10645000F5FF1303C003B3D36202B3F26202938663
:1064600012003143B3836302376700001307A7426A
:106470001E976F80707383D2E121638A0200FD1240
:10648000930FC00333DFF203B3F2F20385026FF020
:10649000FFE0054E6307CF01094E6307CF016F0090
:1064A000F06F1355150021A8131E35003305AE40BB
:1064B00013553500130585FC635305000145130E84
:1064C000F00F6373AE0072856FF0DFE30000000031
:1064D00000000000418DB1BF83C7B1A0397156D211
:1064E00006DE22DC26DA4AD84ED652D45AD05ECE08
:1064F00062CC66CA6AC86EC61147639CE70293877E
:10650000819A03C70700134717002380E70083C75A
:10651000819A1389819A6383072A03A781379D464D
:1065200063E1E610B9660A07938646163697184364
:106530000287A146E39DD7FC83A78137639DE706C9
:10654000EF40C07B0945EF40F07713055003EF4063
:10655000607DAD65370501089385A5AA130505E0A3
:10656000EF4030070945EF40F075EF40C07A8146B3
:10657000494681450945EF30E04D938781D2138428
:10658000A709B7E400003E859385C43CEF6050083E
:1065900093076501E39987FE0945EF30201C130539
:1065A000803EEF403072B707EFBE37E700E09387D9
:1065B00007083CC7A9BF1547E39BE7F4EF40007409
:1065C00013055003EF4000760545EF40B06F3704E8
:1065D0000108130504C0EF40407A0945EF40906E72
:1065E000B1659385B5BB130504C0EF40807E294596
:1065F000EF40506DEF402072294565B783D7C13A0F
:106600009384619A0947F94601469385619A130577
:10661000900C2390F400EF20904F83D70400239632
:10662000F13A03A781379377F70F238AF19419463C
:1066300083C65195938B4195138B5195637AF618C8
:106640001377F70F158FE9176348E618EF30E05D11
:1066500003A7019313840193198D2547637EA70037
:1066600093874193984393062003050763E9E61651
:1066700098C3EF30805B08C0396C8144130C4C1810
:10668000138A81D21384C13A9389C1A883470B002E
:106690001D4713FDF40FA6976368F71E8A07E2975C
:1066A0009C4382871384C13A835724009384619A60
:1066B0000947854601469385619A13052003239077
:1066C000F400EF20D04483D704002311F40091BFDD
:1066D0001384C13A8357C4009384619A094785465D
:1066E00001469385619A130530032390F400EF204F
:1066F000104283D704002316F400E39407F283D7F3
:10670000E1334947B387E7022947B3C7E7029387D5
:1067100007022395F19A31B783D7813B1384C132A5
:10672000035724019384619A95C32390E400930650
:1067300010040947130670039385619A1145EF20F1
:10674000103D83D704002319F400E1BDC949330784
:106750003703294A93065009130630089385619A36
:10676000154533474703130707022390E400094701
:10677000EF20F03983D704002395F19A8117B3876E
:106780004703B3C73703C1B793C717002300F90006
:1067900049BD93C717002300F900194723AEE13E16
:1067A00049B593C717002300F9009387C13A03D76F
:1067B000E700134717002397E700A5B5014799465F
:1067C00001469385813713058003EF20503491BD36
:1067D000E38E06E6E3FCD7E62300FB0085BD23A09D
:1067E000070041BD59453385A4020347090083D6FC
:1067F000C13A8357E400529535C303A641937947C4
:10680000637EC70403A7813731EBB7E5000095CA63
:106810008DE337E600001306067BA54763EED7003D
:10682000B7E600009386467C9385057AEF60E059D1
:10683000A1A81386C181D5B7B7E600009386C67BB1
:10684000E5B791EB37E600001306067BB7F60000CC
:1068500093868696D1BF1386C181CDBFADCEADEBF9
:1068600037E600001306067BB7F500009385058325
:10687000EF60A05583D7C13A03D709006306F7003C
:1068800023AA01922390F9008146494681456A85F1
:10689000EF30401C85049D47E39AF4DE03C50B00EE
:1068A00083470B006254F250D2544259B259225AD3
:1068B000925A025BF24B624CD24C424DB24D1D8D4E
:1068C0008546494681451375F50F21616F30801863
:1068D0001386C18151BF91CB1386C18193864188B4
:1068E000B7E500009385057A61B737E60000B7F693
:1068F00000001306067B93860608DDB759453385ED
:10690000A402034709008357E400B7E5000052954D
:1069100005CF83A6419379476378D70283A6813751
:1069200005476393E60291EF37E600001306C67C45
:1069300083572400E39C07F0B7E600009386062007
:10694000E5B513860187EDB785EF37E6000013063E
:10695000C67C0357240005CB8DEFB7F60000938665
:1069600006089385057AEF6040468357240003D7D5
:106970002900E30BF7F023AA01922391F90029B72C
:1069800013860187F9B789EBB7E600009386863E48
:10699000C9BF93864188F1B793860188D9B7594515
:1069A0003385A402034709008357E40052951DCBA9
:1069B00083A6419379476377D70283A68137094736
:1069C0006392E60281EF37E600001306467DB7F5D5
:1069D00000009385C583EF60403F7DB5396613069F
:1069E000864BF5B78DEF37E600001306467D8357DB
:1069F000C40095EBB7E600009386467EB7E500003D
:106A00009385057AEF60603C8357C40003D7490043
:106A1000E30CF7E623AA01922392F900B5B5396693
:106A20001306864BE9B7B7E600009386067EF9B7F2
:106A300059453385A402034709008357E400529562
:106A400031CF83A641937947637AD70483A68137F0
:106A50000D476395E6049DE737E600001306867E42
:106A60008357C4009DC3B7F6000037E70000938644
:106A700086961307077EB7E500009385852CEF60A7
:106A8000C03419B51386C18CE1BFB7E6000037E703
:106A90000000938606201307477EF1BFA9E337E67F
:106AA00000001306867E8357C400938DC1329DCBB0
:106AB00083D62D0137E700001307077EB7E50000F6
:106AC0009385052DEF60603083D72D0103D76900D2
:106AD000E30CF7DA23AA01922393F90075B3138626
:106AE000C18CD1B737E7000083D6A19A1307477E40
:106AF000F1B759453385A4028357E400529581EBE1
:106B0000B7E500009385857FEF608030B5BBB96540
:106B100093858545D5BF59453385A4028357E40045
:106B2000529591E7B7F5000093858580F1BFB9656F
:106B300093854542D1BF59453385A4028357E4006C
:106B4000529591E7B7F500009385858175BFB965CA
:106B50009385C54655BF59453385A40203470900AF
:106B60008357E40052951DCB83A641937947637701
:106B7000D70283A681371D476392E60281EF37F67D
:106B8000000013064682B7E600009386C61FB7E5ED
:106B9000000059B9396613068647F5B78DCBB7F6AD
:106BA00000003966B7E500009386468413068647E1
:106BB0009385057AEF6060218357E40003D7E900ED
:106BC000E304F7CC23AA01922397F90075B937F6AD
:106BD0000000B7E500009386818B1306C684938579
:106BE0000532C9BF83C7B1A00547639FE70083C6CD
:106BF00081930947638AE60023AEF13E9387819231
:106C000023A007002392070083D741371D476369FC
:106C1000F70239678A071307471ABA979C43828796
:106C20006FC0BFE56FD02FE36FD0BF936FD09FDEF3
:106C30006FE0EFEE6FF06F916FF01F8A6FF0DF89FA
:106C4000828003C7B1A0597186D6A2D4A6D2CAD079
:106C5000CECED2CCD6CADAC8DEC6E2C4E6C2EAC01C
:106C60006EDE02C8231A010002CC231E01008547F4
:106C70006315F700094723AEE13E1389C11D138A4E
:106C800001AD938981AB9384C1AD1384C11D814C47
:106C9000938AC132138BC1AA938BC19C0347840290
:106CA00085476317F71C0357640183570A0063087D
:106CB000F71AEF2090779C401D8D9307803E63F07C
:106CC000A702EF2090760357640183D7AA0288C0F9
:106CD0002310EA0029A00100A9072310FA00139C41
:106CE0001C005A9C0357040183570C00630DF716D0
:106CF000EF20B07383A709001D8D9307803E63FAD0
:106D0000A700EF2090728357040123A0A90023104D
:106D1000FC00B3877C0103C70700854703D68A04BC
:106D2000631EF70293971C00DA9783D70700930539
:106D3000803E1418138787023345B702E6962380F6
:106D4000A6FE8D46631CD6129507B3E7B702A94687
:106D500038086697B3C7D7022300F70083570A00A5
:106D60009306803E1810B3D5D70266972300B7006C
:106D70000D47B3F7D702631FE6101307400613044D
:106D80008403090A91099104B3D7E7023810669782
:106D9000850C93F7F70F2300F7009947E390FCF079
:106DA00083A6013C1308C0030567B3D70603130786
:106DB00007E133D7E602B3F7070333F80603854646
:106DC0006309D61271CA8946630FD6148D466305CE
:106DD000D618B70C00209387CC0F9384E1D3D68BC1
:106DE0000144138B01A03EC6138CC13A138D41821E
:106DF000834C8902854793091400639CFC2C8347CC
:106E00004903638807188357EC0063900718B7E6B7
:106E1000000093864651B7E500004E869385C55A1B
:106E20002685EF50907A994713098903D904890B75
:106E30004E84E39FF9FA2654B65096540659F64903
:106E4000664AD64A464BB64B264C964C064DF25DEA
:106E5000854649468145014565616F20B03FEF2079
:106E6000D05C88C0ADBDEF20505C23A0A90055B513
:106E70009307703E9CC023A0F90061BD3367B70241
:106E80003C08B3869701930740063347F7022380F7
:106E9000E600E9B52947E5B503D6A13B83D6CA0389
:106EA0001377F70F05C685E2B7E600009386C63D67
:106EB000B7E500001386C18393850553138581D2FE
:106EC000EF50B07039B79386418CDDB791EEB7E6DD
:106ED00000009386C67337E60000B7E5000013068E
:106EE000865493854555D9BFB7E600009386C64EB4
:106EF000DDB783D6A13B99CE3966B7E6000013060D
:106F0000C64493860620B7E500001377F70F9385F4
:106F100085566DB737E60000B7E600001306464F0A
:106F20009386063ECDB783D6A13B91CEB7F600003F
:106F30001386018A93868696B7E500001377F70FCC
:106F40009385C557F9B737E60000B7E6000013068A
:106F500006509386063ECDB783D6A13B85E237E641
:106F60000000B7E60000130686509386063EB7E59C
:106F700000001377F70F9385455961BFB7F60000FE
:106F80001386C18293868696DDB7B9669386464896
:106F900059B5834759038DCB8357EC0095E3B7E68A
:106FA000000037E700009386065213078752B7E5C3
:106FB00000004E869385455B2685EF501061A5B590
:106FC000EA8613874186E5B718102297034A07001F
:106FD00083D78A0438102297834D070009478328F6
:106FE000C9016395E7043C08338787001C18B38602
:106FF00087000347070083C606FEB7E500006E88DA
:10700000D2874E869385055C2685EF50105C5A9496
:1070100083470400E39997E1B7E500008327C9019E
:107020006E87D2864E869385055E95A00D47639048
:10703000E708B247A29783C70700B1EF03D70B0356
:10704000930740063357F7023C08A2972380E700D6
:107050003C08B386870083C60600B7E50000EE87CC
:10706000528746884E869385C55F2685EF50F0553A
:107070005A94034704008547E317F7DA8327C901C9
:10708000B7E500006E87D2864E869385856126859A
:10709000EF50B05349BB6397970103D70B03930796
:1070A00020034DB73C08A2972380070055B73C0842
:1070B000338787001C18B3868700B7E500006E8809
:1070C000D2870347070083C606FE4E869385456335
:1070D00025BF37E7000037E60000B7E500001307DB
:1070E000071FCE861306462093858520F1B583C7FA
:1070F000B1A0797122D4F11706D626D24AD04ECE4D
:1071000052CC56CA5AC85EC662C466C293F7B70F5D
:107110001384813785E3894623AED13E23AC013603
:10712000232404002326040023280400232A040027
:10713000232C040001479946014693852139130504
:107140000005EF20C01C8357A401239AF13693F762
:10715000F70F238AF194138C5195994693844195A6
:1071600003470C0063FBF6083387E740E91763C960
:10717000E608B7090020370A0020138481D2814C29
:107180001389C13AB7EA000093890904130A0A0077
:107190001D4B83470C000357E90093FBFC0FE69758
:1071A000138617008A0725C3D297944393854A26EE
:1071B0002285EF5090418146494681455E85850C88
:1071C000EF2050095904E3966CFD03C50400834782
:1071D0000C002254B25092540259F249624AD24AE7
:1071E000424BB24B224C924C1D8D854649468145FF
:1071F0001375F50F45616F20F00525DFE3FBE7F61A
:107200002300FC00BDB7CE974DB703D7E13A8547C1
:107210006319F702B707002083A7870F37070040DD
:1072200033D5A70293170501C1832316F70293876D
:10723000C13B09CA058142054181231AA702239A4D
:10724000B7028280239B0702DDBF83D7013FA5E7FA
:10725000411122C41384519B8347040006C6094789
:107260006388E7026369F7000547638FE700B24070
:107270002244410182800D476388E7021147E39869
:10728000E7FE23000400E5B78D472300F400C5B7EF
:107290000565054693058025130505AFEFF0FFF65C
:1072A000834704008507D5B7056505469305401F4C
:1072B000130545B5E5B7828083D7013FA9E313875E
:1072C000419B8346070085CE9387160093F7F70FFF
:1072D0002300F7003D466375D60023000700828037
:1072E000858B89CB056505469305800C1305C5A8DC
:1072F0006FF0BFF10146930540060145D5BF82807E
:1073000083D7013FBDEB411122C483C7319B06C621
:107310001547FD1793F7F70F1384319B6366F70248
:107320003D678A0713070798BA979C4382870565CC
:1073300005469305A00F130565B8EFF01FED8347D1
:10734000040085072300F400B240224441018280FA
:1073500005469305A00F0565130525B2F9BF056520
:1073600005469305A00F1305E5ABC1BF0546930580
:107370008025D5B723000400C1BF828083C7519BFD
:1073800099C36FF09FEC83C7419B99C36FF0DFF205
:1073900083C7319B99C36FF0BFF68280135E3500BF
:1073A0001D89B76E0000769E034F4E3C834F5E3CB6
:1073B000B38FEF41B38FAF02910F93DF3F003305DF
:1073C000FF016FE03FF473002030397185451145AE
:1073D00006DE22DC26DAEF30904B85454145EF3062
:1073E000104B854513050020EF30704A3165EF30B2
:1073F000303D371501409307E0076C001305058009
:107400002316F10002CAEF30F0218D476C003715CA
:107410000140372401402316F10002CAEF309020CA
:1074200013050440EF306072B7070E003ED22C08FF
:107430008547130504402306F10202CC02CE02D098
:1074400002D4EF30E072854513050440EF304077F9
:1074500013050440EF30C077930404402685EF30D5
:10746000C0776DFD1305044037240140EF3060778D
:10747000130404402285EF3060776DFDF2506254B2
:10748000D25421618280011122CC37240140AA8587
:1074900026CA9D460546AA841305044006CE4AC85E
:1074A0004EC6EF30A076854513050440EF3080745A
:1074B0001309044089454A85EF30500165DD130505
:1074C0000440EF303000130504409D460546A68574
:1074D000EF30C07313050440854537240140EF3079
:1074E00060711309044089454A85EF30207E65DDCF
:1074F00013050440EF30007D130504409D4605460A
:10750000A685EF30A070130504408545372901405A
:10751000EF30406E1304094089452285EF30007B2F
:1075200065DD13050940EF30E0799D460546A685E7
:107530002A8413050940EF30606D13050940854525
:1075400037290140EF30006B9309094089454E858A
:10755000EF30C07765DD13050940EF30A0769D461A
:107560000546A6852A9413050940EF30206A1305C5
:107570000940854537290140EF30C067930909402C
:1075800089454E85EF30807465DD13050940EF3085
:1075900060739D460546A6852A9413050940EF3081
:1075A000E06613050940854537290140EF308064C6
:1075B0009309094089454E85EF30407165DD13051B
:1075C0000940EF302070938744FF93F7F70F05478A
:1075D0002A946360F70437290140B149130909402F
:1075E000A6854A859D460546EF30406285454A8519
:1075F000EF30406089454A85EF30406D65DD4A8552
:10760000FD19EF30206C93F9F90F2A94E39A09FCE5
:10761000098013552400F24062444205D244424995
:10762000B249418105618280411122C43724014061
:10763000AA85814605461305044006C626C2EF30DA
:10764000E05C854513050440EF30C05A93040440C4
:1076500089452685EF30806765DD130504402244A7
:10766000B240924441016F30E06563460504411128
:1076700022C4137615002A84371501408565130549
:1076800005C006C6EF30500713561400058AC145E1
:1076900037150140EF3050061356240037150140CE
:1076A000058A93050002EF3030052244B240294597
:1076B00041016F30305E8280DD4763E8A7243D677B
:1076C0009317250013078799BA979C43828713075E
:1076D00080033307E5029387C11D8566938606CD37
:1076E000BA97131715001385C1B63A9503570500CD
:1076F0003307D7023187239BE70082801306A5FF5B
:10770000B707002037070020931516009387C70698
:107710001307C70FAE97329703D8070083470700B8
:107720009386C11DB5E7931715001385C1B63E9525
:10773000930780033306F60203570500B29683D7FA
:10774000260163FBE70C1D8F9307106EB307F7024A
:107750001307803EB3D7E702B3870703B3D7E70227
:107760001387C132BA9503D70500B387E7020567CF
:107770001306479C1307C79EB3D7C702C207C1832E
:107780006365F7002398F60082802398E6008280E4
:107790000547639EE706130780033307E602138657
:1077A000C1B6369793161500B29683D60600835756
:1077B00027011386A6006359F604958F9306106E71
:1077C000B387D7029306803EB3D7D702B3870703A8
:1077D000B3D7D7029306250086061385C1323695A6
:1077E0008356E500B387D7029306C05DB3D7D702AF
:1077F00093064060C207C18363E5F6002318F700D3
:1078000082802318D7008280231807008280130704
:1078100080033306E602B29623980600828013178F
:1078200015009387C1B6BA9703D70700411122C448
:107830002A840965130505713305A7028567998FA9
:1078400006C63355F50242054181EF2020369307E5
:10785000600963D4A700130560095114130780035E
:107860003304E4029387C11D3E9463530500014530
:10787000231DA400B24022444101828083D721B954
:107880000567130707CDB387E7021307007D8966F5
:1078900093860671B183B387E7021307603BB3D7C2
:1078A000E7021387C13BC207C18363E4F6005CD3E0
:1078B000828023220702828083D741B91307803E4A
:1078C000B387E70205671307078AB3C7E70223A256
:1078D000F13C828083D761B90567130747D6B38728
:1078E000E7021307803EB3D7E702C207C18323AE86
:1078F000F13C82809387719B03C7070005072380B3
:10790000E70082809387919BC5BF828001114AC89E
:1079100083C7619B06CE22CC850726CA4EC652C4B9
:1079200056C25AC093F7F70F5D471389619B636096
:10793000F7122300F900834609003147BD643387FD
:10794000E6029387849F15469384849FBA979C4749
:1079500013F7F70F238DE19A9389A19B636CE60ED1
:1079600093F7F70F1387C19DBA9703C707008547A1
:107970006305F70CB147B386F602A69688426344C6
:107980000500EFF09FCE834709003147B387E70238
:10799000A69703C54700EFF01FAF2A8403C509006F
:1079A0001387C1B9131325001A971C4393181500A8
:1079B0009385C1B9A2971CC39386C1B0C69603D65E
:1079C00006001387C1B06364C40023908600138649
:1079D000C1B34696035806009386C1B3636488001A
:1079E00023108600138641AF2A96034806000D4EE9
:1079F00005081378F80F636C0E092300060183C78E
:107A000009001547636BF702856A130B8003938A9D
:107A10000ACDB3876703138AC11DB7466A003304D2
:107A20005403D29703C78702635ED40819E7094756
:107A300031842384E702239B8700F2406244D244CE
:107A40004249B249224A924A024B05618280230090
:107A50000900D5B569171377F70FE36DE6F093F7D3
:107A6000F70FE9171387C19D3E9703470700E313FC
:107A700007F0130680033386C7021387C11D3297B0
:107A800050530947E318E6EE1387C19CF1BD23006C
:107A900006004697C6961386C1B646960358070059
:107AA00083D806009A95239086004698B3870741AD
:107AB00085832310F6002310870023A00500EFF034
:107AC000BFBF35BF8547E31AF7F62945EF30901F52
:107AD00003470900B1473307F702BA9403C54400CE
:107AE000EFF07F9A33055503B7576A00E347F5F483
:107AF00083C70900B38767033E9A23040A0235BF90
:107B0000954763EDA706BD67938787B10A053E9544
:107B10001C41828781C9930500103715014029CE89
:107B20006F30003D854537150140130505C0C5BFC1
:107B300081C593050020D5B78945F5B781C5930563
:107B40000040E1BFC145C5B789C5856593850580FE
:107B5000E9B793050002C1BF99C185657DBF930553
:107B60000010D1B799C537150140A16513050580EF
:107B70007DB79305002045BF6F30C037828001116B
:107B800022CC26CA4EC62A8406CE4AC852C456C241
:107B9000EF20A0099387C1BF93192400CE979C437F
:107BA0009384C1BF1D8D9307803E63FFA706938713
:107BB000C19DA29703C7070025EB93068003B30678
:107BC000D4021387C11D1386C1B63697930664008D
:107BD0008606B29683D606002319D7000547238070
:107BE000E70093874180A29783C707009DE3014682
:107BF00081452285EFF0DFF0054685452285624408
:107C0000F240D2444249B249224A924A05616FF099
:107C10003FEF05476397E70C014685452285EFF066
:107C20003FEE05468145D9BFEF202000B3873401E0
:107C30009C431D8D9307007D63F5A70A93874180C0
:107C4000A29783C7070037090020138A4180931A3F
:107C500014001309C906D9EF130680033306C402C2
:107C6000930764001387C1B68607BA971387C11DAF
:107C700083D70700B3065901329703572701998F1D
:107C80001307106EB387E7021307803EB3D7E702EE
:107C9000372726001307075AB357F7022390F60039
:107CA0009387C19DA29701468545228523800700C1
:107CB000EFF01FE5014681452285EFF07FE45699FC
:107CC0000357090089661307B7F942074183938672
:107CD000A66A9387C19C63E3E6063E94854723002A
:107CE000F400F2406244D2444249B249224A924AE4
:107CF000056182800547E395E7FA130780033307A0
:107D0000E4029387C11D1386C1B6B3065901BA9721
:107D100013076400060732970357070083D727012C
:107D2000998F1307106EB387E7021307803EB3D70E
:107D3000E70237E7160013070736B9BF9386419D60
:107D4000A29603C60600A2972380070005061376B5
:107D5000F60F2380C60095459386419D63F9C502C1
:107D6000229A83450A0005461387C11D6396C50202
:107D7000130680033306C4021305703E3A96035877
:107D80006601636B05012380B700A304B602EF1000
:107D9000D069CE9488C0B1B7B3878600238007002E
:107DA000930780033304F40285473A9423220402A4
:107DB000A30AF402238AF19AD9BF411122C44AC00E
:107DC00006C626C285472A8432896380F50A91C98E
:107DD0008947638FF50EB240224492440249410123
:107DE0008280EF10906483A7019F9384019F1D8D73
:107DF0009307F07C63F5A700EF10306388C0EF10A5
:107E0000D0629C409384C19D1D8D637925030546F6
:107E100081452285EFF0DFCEB387840083C707005A
:107E200089EB9387A19D03D7070001E705472390BE
:107E3000E700269485472300F40071BF0146814581
:107E40002285EFF0FFCBB387840003C70700854787
:107E50006319F7009387A19D83D6070099E22390C9
:107E6000E700269423000400BDB7EF10105C83A741
:107E7000019F9384019F1D8D9307F07C63F5A700FC
:107E8000EF10B05A88C0EF10505A9C409384C19DA7
:107E90001D8D63782501054685452285EFF05FC677
:107EA00049BF014685452285EFF09FC5B387840011
:107EB00003C707008547E316F7FA1306007D93070B
:107EC000C012330626413356F602239DC19C51BF92
:107ED00001468545EFF0DFC2228501468145EFF07E
:107EE0003FC29387C19D3E94B5BF797122D406D617
:107EF00026D24AD04ECE52CC56CA5AC85EC62A8422
:107F000099CD85476384F56CB2502254925402593E
:107F1000F249624AD24A424BB24B45618280938712
:107F2000C13283D7C7039384C1329389C11D63894A
:107F3000073883D784040D4A63904733930780033F
:107F4000B307F402396713070710CE97945B637C7D
:107F5000D700054723A80702A384E7020146894505
:107F60002285EFF09FE593078003B307F402CE97D5
:107F700083C79702D1FBEF10504B1389C19E832713
:107F800009001D8D9567938707E263F6A702238496
:107F9000019293878192A380070023810700A38128
:107FA000070023820700A3820700EFD08F96EF100F
:107FB000D0472320A90093078003B307F4021319C5
:107FC00014001306A005CE9783D60702B3872401B9
:107FD00003D707006371D64A9306001963F4E600DD
:107FE0002390D700370700201307C706B387240163
:107FF0004A970357070083D70700B7C64700938601
:108000003612B387E7021307803E131A2400B3C762
:10801000E7021307007DB387E702138741CD63E9C9
:10802000F64685669386469CB3D7D702330647014A
:108030001CC25297104385452285EFF01FD8EF10E0
:10804000D03E9387C1CBD2979C43938AC1CB1D8DE1
:108050009307803EE3FAA7EA03D684040D479547C9
:108060006313E60085472385F18083C681A5054714
:108070006380E602130780033307E4024E978356BA
:108080000701138741D04A97035707006378D74009
:10809000B386240103D706009305000563F6E500C7
:1080A000B307F7402390F60093078003B307F40269
:1080B00083D66401CE97985B050798DB99CA11EACD
:1080C00063F9E6000547A384E70289452285EFF0BE
:1080D000DFCE03D744019307405163F6E70293874D
:1080E000C1D1CA9783D70700637FF7009307800346
:1080F000B307F4020547014689452285CE97A3843C
:10810000E702EFF09FCB93078003B307F402A94681
:1081100013074002138301C5CE9703D5070103D887
:108120006701B306D502B3C6E602138741C1529771
:108130001043B29614C31307803E33D7E602D8CF5C
:10814000138701C852971C43938801C8C2971CC368
:10815000138701C54A97035607006374060123106D
:1081600007011386C1C54A96035606001387C1C589
:108170006363C80009E6330627012310060113864E
:10818000819F229683450600254E850593F5F50FC0
:108190006360BE322300B600F54763EDA700930786
:1081A000200363F9D70093078003B307F402CE9747
:1081B0002384070203D784048D476309F708B38734
:1081C000240183D507009307F01D1308A05A63EF1D
:1081D000B700130780033307E4029307C0034E97E9
:1081E0000357070263F4E7001308C0581387C1D18F
:1081F0004A9703550700938781C9138681C6CA979A
:108200005296239007011C42138B81C6938B81C920
:1082100063DCA72C930780033304F402B707002024
:1082200093878707CA9783D70700A29903A70903F3
:1082300063F3E70008C2EF10501F938741CAD2973B
:1082400088C3938741C43E9923100900EF10F01DA5
:10825000569A2320AA004DB90946E386C7D01309D0
:1082600080033309250305474E99834769036381DA
:10827000E70CD9CF6386C71613098003330924039B
:108280004E99834799028DCF034A69038D4763193D
:10829000FA02054681452285EF101005938741803B
:1082A000A297294723224903230B09022380E700D1
:1082B000EF10B017931724001387C1CEBA9788C365
:1082C00083D784040D4AE38B47C783D7C403E39C59
:1082D00007C813098003330924034E998347990281
:1082E000E38B07C8054681452285EF10E07F938721
:1082F0004180A2972947232249032380E700EF10FA
:10830000D012931724001387C1CEBA9788C3A1B99E
:1083100083D6E40313161500B30796002390D70005
:10832000938741D0B2972390D700230BE902A9B7D6
:1083300003D704048326C9016379D70813172500DE
:10834000938781C6BA9723A007009387819FAA9736
:10835000238007009386C1D193171500BE96239002
:108360000600938601C5BE96BA8523900600035782
:1083700069019386C1C5BE962390E60083D6240486
:10838000138701C82E9723200700338797002310F7
:10839000D700138741D03E972310D70003D7E403BB
:1083A00023280902A3040902158F230BC90293068F
:1083B000301FE3C3E6EC3707002013078707BA979F
:1083C0001307A0052390E70045BD03479902E395F5
:1083D000E7EA01468945EFF05F9E230B490369BD3B
:1083E00083D744048326C90163F4D70813172500F3
:1083F000938781C6BA9723A007009387819FAA9786
:10840000238007009386C1D193171500BE96239051
:108410000600938601C5BE963A8623900600035750
:1084200069019386C1C5BE962390E60083D6640495
:10843000138701C832972320070033879700231042
:10844000D700138741D03E972310D7002328090275
:10845000A3040902230B49031307703EE36ED7E020
:108460003707002013078707BA971307600999BFDA
:1084700083479902A9BF1306C0036375D60093060C
:108480000032A9BE7946E37FD6B49306C05DB9B683
:10849000B30747019306807594C361BEE3F6E6C057
:1084A0003387240183560700B6972310F700EDBEEB
:1084B000B305230103D305004A9723000600B387C1
:1084C0006740035307001386C1D1B38767408D838C
:1084D0004A962310F600B387480123900500231025
:1084E000070123A007004DB903D704012A9763545D
:1084F000F7066352F806138641C44A96835606006F
:108500008567138577BB8506C206C1822310D60016
:10851000938441C479466368B500938787BB8D8F88
:10852000918713F6F70F1387419E22972300C70008
:10853000E37ED6D00146894522852699EFF0FF8754
:1085400023100900930780033304F402A29985479E
:10855000A384F902E5B9EF10406D938741CAD29721
:108560009C431D8DB78710009387F7AB63F3A70279
:10857000B3862B0183D7060033074B01184393873B
:10858000E7FD6348F700014689452285EFF0FF8249
:1085900055BF93078003B307F402BE9903A7C9012F
:1085A0008567938787BB63F8E70001468945228585
:1085B000EFF0BF8069BF938741C43E99835709009C
:1085C000E38607C8FD172310F90049B1EF10E065F5
:1085D0009387C1C293142400A6979C431D8D9307D3
:1085E000007D938AC1329389C11D131A1400138B25
:1085F000C1C21309840063F7A70283C781A56388FA
:10860000071293171900D69703D7E70093060005C2
:1086100063F5E60059172397E700EF100061269BEA
:108620002320AB0037070020931719001307C70654
:10863000D69752970357070083D7E700B7162B004A
:108640009386B6D7B387E7021307803EB3C7E70226
:108650001307007DB387E702138741CD63E3F6126A
:108660001306C05DB3D7C702B30697009CC2269716
:10867000104381452285EFF04FF493078003B30741
:10868000F4028546CE9703C79702631ED70083D6B0
:108690008A04639AE6000D47D8D393874180A29756
:1086A00029472380E700EF1040589387C1CBA69756
:1086B0009C439305803E1389C1CB1D8DE3F6A584B1
:1086C000130780033307E402A947930640024E973D
:1086D00003560701B307F602B3C7D702938641C119
:1086E000A6968842AA979CC2B3D7B7028356670161
:1086F0005CCF1C5B85071CDB03D7AA02938741C4B0
:10870000D29763E6E600130750046362C70A03D7F3
:108710000700F94605074207418363EAE60623900E
:10872000E700EF108050CA9488C06FF0EFFD130788
:1087300080033307E4024E9703560701138701D1E4
:108740005297835707001307200333C7E702B38606
:10875000E700E3C8C6EA3297E351F7EC9316190035
:10876000D69603D7E6009305B05DE3E8E5EA130685
:10877000860C6346F60029072397E60079BD51076A
:10878000E5BFB30797009306807594C3CDB52285E6
:108790000146894523900700EFF02FE293078003FD
:1087A0003304F40285474E94A304F4029DBF239042
:1087B000070085BF797152CC9387C13BB04322D467
:1087C0004AD006D626D24ECE56CA5AC85EC662C413
:1087D0002A84138AC13B1389C11D09EA93078003C8
:1087E000B307F502CA9783C7870285E7930780031B
:1087F000B307F4029386C1203307F900230407006E
:1088000023000700A3040702B69723920700231D45
:10881000070093048003B30494020947CA94DC5010
:108820006388E7228D46638CD75C6394071693199F
:108830002400931A14004DE203CB8402854763158C
:10884000FB0683C74403ADE383C75403D1E7D8D005
:10885000EF10A03D9387C1BFCE9788C3EF10E03CD7
:108860009387C1CBCE9788C3938781C6CE9723A029
:108870000700938741C4D6972390070093874180D0
:10888000A2977D572380E7009387B19B03C707001A
:10889000A3840402238A0402239D04006316670153
:1088A00023220A002380070093078003B307F40202
:1088B000CA9703C757030DE383C7470391EF931488
:1088C0000401C180014681452685EF10E021014663
:1088D00085452685EF104021014689452285EFF028
:1088E000CFCD938741C1CE9723A007009307800384
:1088F000B307F4021387819F229723000700138791
:1089000001C84E9723200700138701C5CA975697C1
:108910002310070023AE070023A8070283D76701AF
:108920001387C1C556972310F7009387C1D1D697F7
:1089300023900700EF10602F938741CACE9788C31A
:10894000B707002093878707D6971307D002239095
:10895000E7009387C19CA297238007009387419DDE
:10896000A29723800700938701A0A2972380070086
:10897000EF10A02B9387C1C2BE999387C19BA2978A
:108980002380070023A0A9009387419CA2972380FE
:10899000070083270A04639D076E93078003B307CC
:1089A000F4023E998346890285476397F6029387CE
:1089B000E19F03C7070005072380E700938701A015
:1089C000A29783C707006399D700938761A003C765
:1089D000070005072380E7009547631FF404EF10A5
:1089E000C0241389419F832709001D8D9307803E72
:1089F0001384E19F938461A063F7A70283C60400F8
:108A0000034704009387B19B63F0E66803C7070040
:108A1000631C076683274A0085072322FA00EF10AC
:108A2000C0202320A9008347040099E323220A00E1
:108A30002300040023800400B250225492540259AF
:108A4000F249624AD24A424BB24B224C4561828083
:108A50009389C13203DB8904938AC19C938BC13211
:108A600063120B10138741802297034707009387F7
:108A700041801DC303D7C90309EF83D6C90013166C
:108A80001400138741D0B29932972390D900231054
:108A9000D700A29723800700A29A83C70A00639198
:108AA00007342285EFF0AF8D93048003B304940262
:108AB000CA9483C7840285EF23A204020146894534
:108AC0002285EFF08FAF238B040293140401C18041
:108AD0009387C19DA2970146814526852380070083
